:020000040000FA
:10000000800200106901000071010000730100000E
:100010007501000077010000790100000000000078
:100020000000000000000000000000007B01000054
:100030007D010000000000007F0100008101000040
:1000400083010000830100008301000083010000A0
:100050008301000083010000830100008301000090
:100060008301000083010000830100008301000080
:100070008301000083010000830100008301000070
:100080008301000083010000830100008301000060
:100090008301000083010000830100008301000050
:1000A0008301000083010000830100008301000040
:1000B0008301000083010000830100008301000030
:1000C00083010000830100008301000000F002F8BA
:1000D00000F03AF80AA090E8000C82448344AAF1A8
:1000E0000107DA4501D100F02FF8AFF2090EBAE8A6
:1000F0000F0013F0010F18BFFB1A43F0010318475C
:10010000CC010000EC010000103A24BF78C878C18F
:10011000FAD8520724BF30C830C144BF04680C600D
:10012000704700000023002400250026103A28BF55
:1001300078C1FBD8520728BF30C148BF0B60704759
:100140001FB51FBD10B510BD00F02FF81146FFF709
:10015000F7FF00F0B1F800F04DF803B4FFF7F2FF3D
:1001600003BC00F055F800000948804709480047E3
:10017000FEE7FEE7FEE7FEE7FEE7FEE7FEE7FEE757
:10018000FEE7FEE704480549034A054B70470000B7
:1001900001030000CD00000080000010800200106C
:1001A00080000010704770477047754600F02CF8CB
:1001B000AE4605006946534620F00700854618B054
:1001C00020B5FFF7DFFFBDE820404FF000064FF0FD
:1001D00000074FF000084FF0000B21F00701AC467C
:1001E000ACE8C009ACE8C009ACE8C009ACE8C0099B
:1001F0008D46704710B50446AFF300802046BDE839
:100200001040FFF7AABF0000004870472000001010
:1002100001491820ABBEFEE726000200704700002F
:100220000848006808490843064908600846006A0B
:1002300040F4001008620846006C40F40060086456
:100240007047000000C00920100038000D484069C8
:1002500040F010000B4948610846006820F4000097
:1002600008600846006820F0807008600846006E4C
:1002700020F0007008660846006E20F08060086676
:100280007047000000C009200A48006840F02000C4
:10029000084908600846006840F480600860084625
:1002A000006C40F4805008640846006C40F4005034
:1002B0000864704700C0092000F05CFAFFF7B0FF47
:1002C000FFF7C4FF00BF00F0BDF9FCE72408000001
:1002D0000000001020000000080100004408000099
:1002E0002000001060020000240100000000000057
:1002F000000000000000000000000000FFFFFFFF02
:1003000020204B4908604B48D0F8A00100F02000A5
:1003100030B100BF4648006800F040000028F9D026
:10032000032043499C39086000204249C1F8A801D4
:100330003F490C31086001203D49943908603E482E
:100340003C4984310860AA203A498C310860552024
:1003500008600120374980310860AA2035498C3176
:10036000086055203349C1F88C0000BF31488830FF
:10037000006800F080600028F8D003202D4980310B
:100380000860AA202B49C1F88C00552029498C31DE
:10039000086000BF27488830006800F04070B0F166
:1003A000407FF7D123202349A4310860AA202149A6
:1003B000C1F8AC0055201F49AC31086001201D492F
:1003C000A0310860AA201B49AC31086055201949AA
:1003D000C1F8AC0000BF1748A830006800F4806086
:1003E0000028F8D003201349A0310860AA20114941
:1003F000C1F8AC0055200F49AC31086000BF0D4872
:10040000A830006800F44070B0F5407FF7D10B4889
:100410000849C431086000200649C1F8C8010846EF
:10042000006820F4704040F480400860704700008D
:10043000A0C10F4000C00F4063000500DE87280404
:1004400000B5FFF721FF1048406920F020000E4959
:1004500048610846406940F4806048610846406D44
:1004600040F4805048650846406D40F400504865AF
:100470000846406D40F4006048650846406D20F431
:100480000060486500BD000000C0092000B5FFF70E
:10049000FBFE1048406940F020000E4948610846C4
:1004A000406920F4806048610846406D40F4805007
:1004B00048650846406D40F4005048650846406D68
:1004C00040F4006048650846406D20F400604865CF
:1004D00000BD000000C0092000B5FFF7D5FE1048A0
:1004E000406940F020000E4948610846406940F4E8
:1004F000806048610846406D40F480504865084679
:10050000406D20F4005048650846406D40F400609E
:1005100048650846406D20F40060486500BD000055
:1005200000C0092030B5002500244548406940F44A
:100530000020434948610846406940F48010486102
:100540000846406920F400104861FFF779FF012058
:1005500000F0DEF80446012C00D10325022000F053
:10056000D7F80446012C00D10225032000F0D0F872
:100570000446012C00D10125042000F0C9F80446EE
:10058000012C00D10025FFF781FF012000F0C0F809
:100590000446012C00D10725022000F0B9F80446DA
:1005A000012C00D10625032000F0B2F80446012CEE
:1005B00000D10525042000F0ABF80446012C00D141
:1005C0000425FFF73DFF012000F0A2F80446012CAE
:1005D00000D10B25022000F09BF80446012C00D12D
:1005E0000A25032000F094F80446012C00D10925C7
:1005F000042000F08DF80446012C00D10825FFF7F7
:100600006BFF012000F084F80446012C00D10F2577
:10061000022000F07DF80446012C00D10E250320B5
:1006200000F076F80446012C00D10D25042000F0DE
:100630006FF80446012C00D10C25284630BD00007F
:1006400000C0092010B50024FFF76CFF044604F039
:10065000010020B10121084600F0B2F803E00121B9
:10066000002000F0ADF8C4F3400020B102210120C9
:1006700000F0A6F803E00221002000F0A1F8C4F386
:10068000800020B10321012000F09AF803E003214B
:10069000002000F095F8C4F3C00020B1042101202F
:1006A00000F08EF803E00421002000F089F8C4F384
:1006B000001020B10521012000F082F803E005219F
:1006C000002000F07DF8C4F3401020B10621012085
:1006D00000F076F803E00621002000F071F8C4F382
:1006E000801020B10721012000F06AF803E0072103
:1006F000002000F065F8C4F3C01020B108210120EB
:1007000000F05EF803E00821002000F059F810BD69
:1007100001460020164A526B22F40012144B5A6311
:10072000012905D11A46526902F4000202B90120DA
:10073000022905D10E4A526902F0807202B90120E5
:10074000032905D10A4A526F02F0007202B9012052
:10075000042905D1064A526F02F0806202B90120D5
:10076000034A526B42F40012014B5A637047000077
:1007700000C00920104800680F49496808430E4925
:10078000896808430D49096A08430C4908620A4808
:10079000C068094909690843074949690843064986
:1007A000896908430449C96908430449096C084335
:1007B00002490864704700000000001000C00920D2
:1007C00010B5A8B1032909DD144A926D4B1E144CD3
:1007D00054F823301A43114B9A651EE00F4A926B6E
:1007E0004B1E0F4C54F823301A430C4B9A6314E001
:1007F000032909DD094AD26D4B1E094C54F82330F8
:100800001A43064BDA6508E0044AD26B4B1E044CCF
:1008100054F823301A43014BDA6310BD00C009209D
:100820000000001000000010000000200000008008
:10083000040000000800000010000000200000007C
:040840004000000074
:04000005000001698D
:00000001FF
